:100000000C9434000C9449000C9449000C94490061
:100010000C9449000C9449000C9449000C9449003C
:100020000C9449000C9449000C9449000C9449002C
:100030000C9449000C9449000C9449000C9449001C
:100040000C9449000C9449000C9449000C9449000C
:100050000C9449000C9449000C9449000C944900FC
:100060000C9449000C94490011241FBECFEFD8E036
:10007000DEBFCDBF11E0A0E0B1E0EEEBF1E002C0E9
:1000800005900D92AE32B107D9F70E94C4000C94CE
:10009000DD000C940000E0911B01F0911C018081B7
:1000A00080628083E0910F01F091100180818F7D4B
:1000B00080830895E0911D01F0911E01882321F0B5
:1000C000808180628083089580818F7DFBCFCF9374
:1000D000DF930F92CDB7DEB78130A1F08230C9F047
:1000E000E0911901F0911A01882381F0898190E053
:1000F00002C0959587956A95E2F781700F90DF9120
:10010000CF910895E0911301F091140180818983CA
:10011000EDCFE0910D01F0910E01F8CFEFE1F1E0AC
:10012000A081B1818C911C92A281B3811C92A48187
:10013000B58187E68C93A085B18588E18C93068094
:10014000F781E02D8EE080830895FC01680F792F00
:10015000711DA0912901B0912A01E617F70751F40A
:100160008C9185FFFDCFE0912B01F0912C018AE06D
:10017000808308958C9185FFFDCF8191A0912B0103
:10018000B0912C018C93E5CF0E944B000E948E0011
:1001900065E082E00E94670081110DC081E00E944D
:1001A0005A002FEF89E698E1215080409040E1F716
:0E01B00000C00000EDCF80E0F2CFF894FFCF4A
:1001BE0048656C6C6F20776F726C640A0D29002A8B
:1001CE00002B0026002700280023002400250064B1
:0E01DE0000C500C400C200C100C000C6000081
:00000001FF
