:100000000C9434000C9449000C9449000C94490061
:100010000C9449000C9449000C9449000C9449003C
:100020000C9449000C9449000C9449000C9449002C
:100030000C9449000C9449000C9449000C9449001C
:100040000C9449000C9449000C9449000C9449000C
:100050000C9449000C9449000C9449000C944900FC
:100060000C9449000C94490011241FBECFEFD8E036
:10007000DEBFCDBF11E0A0E0B1E0E0E3F3E002C0FD
:1000800005900D92AA33B107D9F70E9469010C942B
:1000900096010C940000E0911401F091150180810B
:1000A00080628083E0910801F091090180818F7D59
:1000B00080830895813009F1823041F1811132C08D
:1000C000E0911401F0911501A0911601B091170172
:1000D000309741F1109731F1442309F1308181E0EB
:1000E00090E001C0880F6A95EAF7382B30834223ED
:1000F000C9F09C91892B8C930895E0910E01F091A9
:100100000F01A0911001B0911101E2CFE09108011F
:10011000F0910901A0910A01B0910B01D9CF808122
:100120008F7D80830895E0911601F0911701882357
:1001300021F0808180628083089580818F7DFBCF54
:10014000813049F08230B9F0E0911601F091170149
:10015000882329F00895E0911001F0911101309762
:10016000C9F3808121E030E001C0220F6A95EAF7EF
:1001700082278083EFCFE0910A01F0910B01EFCF4E
:10018000813049F08230C9F0E0911601F0911701F9
:10019000882329F00895E0911001F0911101309722
:1001A000C9F381E090E001C0880F6A95EAF7908179
:1001B000442341F0892B8083EDCFE0910A01F09137
:1001C0000B01EDCF80958923F6CFCF93DF930F926C
:1001D000CDB7DEB78130A1F08230C9F0E0911201D5
:1001E000F0911301882381F0898190E002C09595F8
:1001F00087956A95E2F781700F90DF91CF9108950E
:10020000E0910C01F0910D0180818983EDCFE091A7
:100210000601F0910701F8CFE8E1F1E0A081B1819A
:100220008C911C92A281B3811C92A481B58187E636
:100230008C93A085B18588E18C930680F781E02DB1
:100240008EE080830895FC01680F792F711DE617F9
:10025000F70709F40895A0912201B09123018C9130
:1002600085FFFDCF8191A0912401B09125018C9350
:10027000EECFFC01680F792F711DE617F70709F41F
:100280000895A0912201B09123018C9185FFFDCFAB
:10029000A0912401B091250181918C93EECFCF9351
:1002A000DF93C2E3D1E021E041E0698188810E94CF
:1002B0005A0021E041E06D818C810E945A00E0915A
:1002C0002801F0912901808184608083DF91CF91A2
:1002D00008950F92CDB7DEB70E944B000E940C012B
:1002E0000E944F0165E082E00E94E500182F64E063
:1002F00082E091E00E942301105D198361E0CE014C
:1003000001960E94390162E080E091E00E942301A1
:1003100065E080E00E94A0002FEF89E698E121507F
:1003200080409040E1F700C00000DCCFF894FFCFA0
:100330000A0D42352D3E29002A002B0026002700F9
:1003400028002300240025006400C500C400C2006A
:10035000C100C000C600BD00BC00BB00BA00B900AF
:0A036000B8000105000001040000D0
:00000001FF
