:100000000C9434000C9449000C9449000C94490061
:100010000C9449000C9449000C9449000C9449003C
:100020000C9449000C9449000C9449000C9449002C
:100030000C9449000C9449000C9449000C9449001C
:100040000C9449000C9449000C9449000C9449000C
:100050000C9449000C9449000C9449000C944900FC
:100060000C9449000C94490011241FBECFEFD8E036
:10007000DEBFCDBF11E0A0E0B1E0E2E8F4E002C0F5
:1000800005900D92A634B107D9F70E9412020C9484
:100090003F020C940000E0911F01F091200180814B
:1000A00080628083E0911301F091140180818F7D43
:1000B00080830895813009F1823041F1811134C08B
:1000C000E0911F01F0912001A0912101B091220146
:1000D000309751F1109741F181E090E001C0880F15
:1000E0006A95EAF74423D9F03081382B30832223F4
:1000F000D9F09C91892B8C930895E0911901F0918E
:100100001A01A0911B01B0911C01E2CFE0911301F3
:10011000F0911401A0911501B0911601D9CF408141
:10012000382F30953423E2CF0895E0912101F091EA
:100130002201882321F0808180628083089580815C
:100140008F7DFBCF813049F08230B9F0E091210101
:10015000F0912201882329F00895E0911B01F0918C
:100160001C013097C9F3808121E030E001C0220FEB
:100170006A95EAF782278083EFCFE0911501F0912D
:100180001601EFCF813049F08230C9F0E0912101B2
:10019000F0912201882329F00895E0911B01F0914C
:1001A0001C013097C9F381E090E001C0880F6A9587
:1001B000EAF79081442341F0892B8083EDCFE091D1
:1001C0001501F0911601EDCF80958923F6CFCF93DD
:1001D000DF930F92CDB7DEB78130A1F08230C9F046
:1001E000E0911D01F0911E01882381F0898190E04A
:1001F00002C0959587956A95E2F781700F90DF911F
:10020000CF910895E0911701F091180180818983C1
:10021000EDCFE0911101F0911201F8CFE3E2F1E0AE
:10022000A081B1818C911C92A281B3811C92A48186
:10023000B58187E68C93A085B18588E18C93068093
:10024000F781E02D8EE080830895FC01680F792FFF
:10025000711DE617F70709F40895A0912D01B091DB
:100260002E018C9185FFFDCF8191A0912F01B0913E
:1002700030018C93EECFFC01680F792F711DE617CA
:10028000F70709F40895A0912D01B0912E018C91EA
:1002900085FFFDCFA0912F01B091300181918C930A
:1002A000EECFCF93DF93CDE3D1E021E040E0698151
:1002B00088810E945A0021E040E06D818C810E947B
:1002C0005A00E1E3F1E0A281B38184E08C93A08540
:1002D000B1858C918C7F8C930284F385E02D88E42A
:1002E0008083DF91CF91089580E00895E0913301FC
:1002F000F091340194EA9083E0913301F09134015C
:10030000908197FFFDCFE0913901F0913A01908102
:10031000987F9830C9F5E0913501F0913601880F4A
:100320008083E0913301F091340184E88083E0918F
:100330003301F0913401808187FFFDCFE0913901D5
:10034000F0913A018081887F883101F5E091350193
:10035000F09136016083E0913301F091340184E83B
:100360008083E0913301F0913401808187FFFDCFDC
:10037000A0913901B0913A018C91887F883241F483
:1003800084E9808380E0089581E0089582E0089503
:1003900083E00895E0913301F091340194EA908371
:1003A000E0913301F0913401908197FFFDCFE0910E
:1003B0003901F0913A019081987F983001F5E091F0
:1003C0003501F0913601880F8083E0913301F0917F
:1003D000340184E88083E0913301F091340180811D
:1003E00087FFFDCFA0913901B0913A019C9184E93A
:1003F0008083987F81E0983119F480E0089581E04E
:100400000895CF93DF93C1E0D0E08C2F0E94CA0102
:10041000811101C0DF5FCF5FCF37B9F78D2FDF913B
:10042000CF9108950F92CDB7DEB70E944B000E9486
:100430000E010E9451018FE39CE90197F1F700C082
:1004400000000E94010210E3180F19836BE082E0A4
:1004500091E00E94250161E0CE0101960E943B01DE
:1004600062E080E091E00E9425019FEF23ED80E3B0
:10047000915020408040E1F700C00000E6CFF894A2
:02048000FFCFAC
:100482000A0D54574920636F756E742D3E42352D07
:100492003E29002A002B00260027002800230024E2
:1004A2000025006400C500C400C200C100C000C62F
:1004B20000BD00BC00BB00BA00B900B800010500D5
:0604C2000001040000002F
:00000001FF
