:100000000C9434000C9449000C9449000C94490061
:100010000C9449000C9449000C9449000C9449003C
:100020000C9449000C9449000C9449000C9449002C
:100030000C9449000C9449000C9449000C9449001C
:100040000C9449000C9449000C9449000C9449000C
:100050000C9449000C9449000C9449000C944900FC
:100060000C9449000C94490011241FBECFEFD8E036
:10007000DEBFCDBF11E0A0E0B1E0E8EAF8E002C0E9
:1000800005900D92A434B107D9F70E9422040C9474
:1000900052040C940000E0911B01F0911C0180813E
:1000A00080628083E0910F01F091100180818F7D4B
:1000B00080830895813009F1823041F1811134C08B
:1000C000E0911B01F0911C01A0911D01B0911E0156
:1000D000309751F1109741F181E090E001C0880F15
:1000E0006A95EAF74423D9F03081382B30832223F4
:1000F000D9F09C91892B8C930895E0911501F09192
:100100001601A0911701B0911801E2CFE0910F0103
:10011000F0911001A0911101B0911201D9CF40814D
:10012000382F30953423E2CF0895E0911D01F091EE
:100130001E01882321F08081806280830895808160
:100140008F7DFBCF813049F08230B9F0E0911D0105
:10015000F0911E01882329F00895E0911701F09194
:1001600018013097C9F3808121E030E001C0220FEF
:100170006A95EAF782278083EFCFE0911101F09131
:100180001201EFCF813049F08230C9F0E0911D01BA
:10019000F0911E01882329F00895E0911701F09154
:1001A00018013097C9F381E090E001C0880F6A958B
:1001B000EAF79081442341F0892B8083EDCFE091D1
:1001C0001101F0911201EDCF80958923F6CFCF93E5
:1001D000DF930F92CDB7DEB78130A1F08230C9F046
:1001E000E0911901F0911A01882381F0898190E052
:1001F00002C0959587956A95E2F781700F90DF911F
:10020000CF910895E0911301F091140180818983C9
:10021000EDCFE0910D01F0910E01F8CFEFE1F1E0AB
:10022000A081B1818C911C92A281B3811C92A48186
:10023000B58187E68C93A085B18588E18C93068093
:10024000F781E02D8EE080830895FC01680F792FFF
:10025000711DE617F707E9F44423D1F0E091290175
:10026000F0912A01808185FFFDCFE0912B01F09173
:100270002C018AE08083E0912901F0912A0180819C
:1002800085FFFDCFE0912B01F0912C018DE0808363
:100290000895A0912901B0912A018C9185FFFDCF8D
:1002A0008191A0912B01B0912C018C93D2CFFC01B4
:1002B000680F792F711DE617F707E9F44423D1F091
:1002C000E0912901F0912A01808185FFFDCFE09125
:1002D0002B01F0912C018AE08083E0912901F091BB
:1002E0002A01808185FFFDCFE0912B01F0912C0147
:1002F0008DE080830895A0912901B0912A018C910D
:1003000085FFFDCFA0912B01B0912C0181918C93A1
:10031000D2CFCF93DF93CBE3D1E021E040E06981FE
:1003200088810E945A0021E040E06D818C810E940A
:100330005A00EFE2F1E0A281B38184E08C93A085C2
:10034000B1858C918C7F8C930284F385E02D88E4B9
:100350008083DF91CF910895E0913101F0913201D6
:1003600094EA9083E0913101F0913201908197FFFE
:10037000FDCFA0913701B09138019C91987F9830C2
:1003800021F084E9808381E00895E0913301F091C8
:100390003401880F8083E0913101F091320184E8CB
:1003A0008083E0913101F0913201808187FFFDCFA0
:1003B000A0913701B09138018C91887F883121F06C
:1003C00084E9808382E00895E0913301F091340163
:1003D0006083E0913101F091320184E88083E09103
:1003E0003101F0913201808187FFFDCFA09137016B
:1003F000B09138018C91887F883221F084E9808324
:1004000083E00895E0913301F09134014083E0915D
:100410003101F091320184E88083E0913101F09163
:100420003201808187FFFDCFA0913701B091380163
:100430008C91887F883221F084E9808384E008955C
:1004400084E9808380E00895CF93DF93FA01A0913F
:100450003101B091320194EA9C93A0913101B091A5
:1004600032019C9197FFFDCFC0913701D0913801A7
:100470009881987F983031F084E98C9381E0DF9106
:10048000CF910895A0913301B0913401982F990F25
:100490009C93A0913101B091320194E89C93A0917A
:1004A0003101B09132019C9197FFFDCFC09137018E
:1004B000D09138019881987F983121F084E98C930C
:1004C00082E0DDCFA0913301B09134016C93A09113
:1004D0003101B091320194E89C93A0913101B09127
:1004E00032019C9197FFFDCFC0913701D091380127
:1004F0009881987F983221F084E98C9383E0BFCF74
:1005000094EA9C93A0913101B09132019C9197FFA4
:10051000FDCFC0913701D09138019881987F9031FB
:1005200021F084E98C9384E0AACFA0913301B091AB
:100530003401880F81608C93A0913101B091320118
:1005400084E88C93A0913101B09132018C9187FFA6
:10055000FDCFC0913701D09138018881887F8034E8
:1005600021F084E98C9385E08ACF84E88C93A09174
:100570003101B09132018C9187FFFDCFC0913701DD
:10058000D09138018881887F883521F084E98C9367
:1005900086E075CFA0913301B09134018C918083B6
:1005A000E0913101F091320184E9808380E067CFEE
:1005B000CF93DF93FB01A0913101B091320194EA16
:1005C0009C93A0913101B09132019C9197FFFDCF96
:1005D000A0913701B09138019C91987F9830E9F54E
:1005E000A0913301B0913401880F81608C93A09168
:1005F0003101B091320184E88C93A0913101B09126
:1006000032018C9187FFFDCFC0913701D091380125
:100610008881887F883119F584E88C93A091310115
:10062000B09132018C9187FFFDCFA0913701B0913D
:1006300038018C91887F8832A1F4A0913301B09168
:1006400034018C918083E0913101F091320184E991
:10065000808380E0DF91CF91089581E0FBCF82E03D
:10066000F9CF83E0F7CFE0913101F091320194EAC4
:100670009083E0913101F0913201908197FFFDCF9D
:10068000E0913701F09138019081987F9830C9F559
:10069000E0913301F0913401880F8083E0913101C2
:1006A000F091320184E88083E0913101F0913201D0
:1006B000808187FFFDCFE0913701F0913801808183
:1006C000887F883101F5E0913301F0913401608336
:1006D000E0913101F091320184E88083E0913101B1
:1006E000F0913201808187FFFDCFA0913701B09159
:1006F00038018C91887F883241F484E9808380E0DE
:10070000089581E0089582E0089583E00895E091DE
:100710003101F091320194EA9083E0913101F0913E
:100720003201908197FFFDCFE0913701F0913801C0
:100730009081987F983001F5E0913301F091340178
:10074000880F8083E0913101F091320184E8808349
:10075000E0913101F0913201808187FFFDCFA091BE
:100760003701B09138019C9184E98083987F81E0C2
:10077000983119F480E0089581E00895CF93DF93D4
:10078000C1E0D0E08C2F0E948703811101C0DF5FA0
:10079000CF5FCF37B9F78D2FDF91CF910895CF93EA
:1007A000DF9300D0CDB7DEB720E041E060E081E02C
:1007B0000E945A0041E060E081E00E94C2008FE3A5
:1007C0009CE90197F1F700C0000041E060E082E29F
:1007D0000E94AC018FE39CE90197F1F700C0000093
:1007E00041E06CE082E20E94AC018FE39CE901975A
:1007F000F1F700C000001A82AE014E5F5F4F66E065
:1008000082E20E942402805D898341E061E0CE01A2
:1008100001960E9457010F900F90DF91CF9108959C
:10082000CF93DF930F92CDB7DEB7AE014F5F5F4F2F
:1008300062E182E20E942402898181700F90DF913F
:10084000CF9108950F92CDB7DEB70E944B000E9462
:100850000E010E9489010E94CF038FE39CE901975A
:10086000F1F700C0000060E080E00E941004182F43
:1008700040E064E089E091E00E942501105D198369
:1008800041E061E0CE0101960E94570165E080E001
:100890000E94A2009FEF29E688E19150204080400D
:0808A000E1F7DFCFF894FFCF70
:1008A800545749204465762D3E42352D3E29002A6D
:1008B800002B0026002700280023002400250064C0
:1008C80000C500C400C200C100C000C6000A0DBDBA
:1008D80000BC00BB00BA00B900B800010500000167
:0408E8000400000008
:00000001FF
