:100000000C9434000C9451000C9451000C94510049
:100010000C9451000C9451000C9451000C9451001C
:100020000C9451000C9451000C9451000C9451000C
:100030000C9451000C9451000C9451000C945100FC
:100040000C9451000C9451000C9451000C945100EC
:100050000C9451000C9451000C9451000C945100DC
:100060000C9451000C94510011241FBECFEFD8E026
:10007000DEBFCDBF11E0A0E0B1E0ECE8F9E002C0E6
:1000800005900D92AC34B107D9F721E0ACE4B1E0B2
:1000900001C01D92AF34B207E1F70E944D040C94E9
:1000A000C4040C940000E0911201F09113018081CE
:1000B00080628083E0910601F091070180818F7D4D
:1000C00080830895813009F1823041F1811134C07B
:1000D000E0911201F0911301A0911401B09115016A
:1000E000309751F1109741F181E090E001C0880F05
:1000F0006A95EAF74423D9F03081382B30832223E4
:10010000D9F09C91892B8C930895E0910C01F0918A
:100110000D01A0910E01B0910F01E2CFE091060117
:10012000F0910701A0910801B0910901D9CF408158
:10013000382F30953423E2CF0895E0911401F091E7
:100140001501882321F08081806280830895808159
:100150008F7DFBCF813049F08230B9F0E0911401FE
:10016000F0911501882329F00895E0910E01F09196
:100170000F013097C9F3808121E030E001C0220FE8
:100180006A95EAF782278083EFCFE0910801F0912A
:100190000901EFCF813049F08230C9F0E0911401BC
:1001A000F0911501882329F00895E0910E01F09156
:1001B0000F013097C9F381E090E001C0880F6A9584
:1001C000EAF79081442341F0892B8083EDCFE091C1
:1001D0000801F0910901EDCF80958923F6CFCF93E7
:1001E000DF930F92CDB7DEB78130A1F08230C9F036
:1001F000E0911001F0911101882381F0898190E054
:1002000002C0959587956A95E2F781700F90DF910E
:10021000CF910895E0910A01F0910B0180818983CB
:10022000EDCFE0910401F0910501F8CFE0912001BC
:10023000F0912101808185FFFDCFE0912201F091B5
:1002400023018AE08083E0912001F09121018081E7
:1002500085FFFDCFE0912201F09123018DE08083A5
:100260000895E6E1F1E0A081B1818C911C92A28118
:10027000B3811C92A481B58187E68C93A085B1855A
:1002800088E18C930680F781E02D8EE080830895CD
:10029000CF93DF93CDB7DEB7DF91CF910895FC0107
:1002A000680F792F711DE617F70721F4442381F0B9
:1002B0000C941601A0912001B09121018C9185FF31
:1002C000FDCF8191A0912201B09123018C93EBCFBE
:1002D0000895FC01680F792F711DE617F70721F4C7
:1002E000442381F00C941601A0912001B0912101CA
:1002F0008C9185FFFDCFA0912201B09123018191C6
:100300008C93EBCF08951F93CF93DF9300D000D051
:10031000CDB7DEB7E82F162F80E398E79C838B8359
:10032000AE2FA295AF70B0E0A65CBE4F8C918983D2
:10033000EF70F0E0E65CFE4F80818A8340E062E08F
:10034000CE0103960E944F01412F62E0CE0101963B
:100350000E9469010F900F900F900F90DF91CF9145
:100360001F910895CF93DF93C2E3D1E021E040E0F5
:10037000698188810E94620021E040E06D818C816A
:100380000E946200E6E2F1E0A281B38184E08C93F6
:10039000A085B1858C918C7F8C930284F385E02DB0
:1003A00088E48083DF91CF910895E0912801F09156
:1003B000290194EA9083E0912801F091290190812C
:1003C00097FFFDCFA0912E01B0912F019C91987FB6
:1003D000983021F084E9808381E00895E0912A013A
:1003E000F0912B01880F8083E0912801F091290181
:1003F00084E88083E0912801F0912901808187FFC2
:10040000FDCFA0912E01B0912F018C91887F883172
:1004100021F084E9808382E00895E0912A01F0913F
:100420002B016083E0912801F091290184E8808309
:10043000E0912801F0912901808187FFFDCFA091F3
:100440002E01B0912F018C91887F883221F084E9B0
:10045000808383E00895E0912A01F0912B0140838D
:10046000E0912801F091290184E88083E09128013E
:10047000F0912901808187FFFDCFA0912E01B091DD
:100480002F018C91887F883221F084E9808384E079
:10049000089584E980838FE99FE00197F1F700C018
:1004A000000080E00895CF93DF93FA01A091280126
:1004B000B091290194EA9C93A0912801B09129015F
:1004C0009C9197FFFDCFC0912E01D0912F01988173
:1004D000987F983031F084E98C9381E0DF91CF915F
:1004E0000895A0912A01B0912B01982F990F9C9308
:1004F000A0912801B091290194E89C93A091280132
:10050000B09129019C9197FFFDCFC0912E01D09110
:100510002F019881987F983121F084E98C9382E0B3
:10052000DDCFA0912A01B0912B016C93A0912801FD
:10053000B091290194E89C93A0912801B0912901E0
:100540009C9197FFFDCFC0912E01D0912F019881F2
:10055000987F983221F084E98C9383E0BFCF94EAAE
:100560009C93A0912801B09129019C9197FFFDCF08
:10057000C0912E01D0912F019881987F903121F068
:1005800084E98C9384E0AACFA0912A01B0912B0139
:10059000880F81608C93A0912801B091290184E893
:1005A0008C93A0912801B09129018C9187FFFDCFF8
:1005B000C0912E01D0912F018881887F803421F055
:1005C00084E98C9385E08ACF84E88C93A0912801FC
:1005D000B09129018C9187FFFDCFC0912E01D09160
:1005E0002F018881887F883521F084E98C9386E00B
:1005F00075CFA0912A01B0912B018C918083E0915D
:100600002801F091290184E980838FE99FE0019717
:10061000F1F700C0000080E061CFCF93DF93FB01D2
:10062000A0912801B091290194EA9C93A0912801FE
:10063000B09129019C9197FFFDCFA0912E01B0911F
:100640002F019C91987F983009F043C0A0912A0116
:10065000B0912B01880F81608C93A0912801B091FB
:10066000290184E88C93A0912801B09129018C91F3
:1006700087FFFDCFC0912E01D0912F018881887F07
:10068000883149F584E88C93A0912801B091290123
:100690008C9187FFFDCFA0912E01B0912F018C91FD
:1006A000887F8832D1F4A0912A01B0912B018C91DE
:1006B0008083E0912801F091290184E980838FE90A
:1006C0009FE00197F1F700C0000080E0DF91CF913B
:1006D000089581E0FBCF82E0F9CF83E0F7CFE0918E
:1006E0002801F091290194EA9083E0912801F0918A
:1006F0002901908197FFFDCFE0912E01F0912F010C
:100700009081987F983009F03FC0E0912A01F091E4
:100710002B01880F8083E0912801F091290184E862
:100720008083E0912801F0912901808187FFFDCF2E
:10073000E0912E01F0912F018081887F883131F581
:10074000E0912A01F0912B016083E0912801F09162
:10075000290184E88083E0912801F09129018081BA
:1007600087FFFDCFA0912E01B0912F018C91887F42
:10077000883271F484E980838FE99FE00197F1F773
:1007800000C0000080E0089581E0089582E00895AF
:1007900083E00895F999FECF81BD92BD60BDFA9ABC
:1007A000F99A8FE99FE00197F1F700C000000895E2
:1007B000F999FECF81BD92BDF89A8FE99FE001972C
:1007C000F1F700C0000080B5089520E041E060E04E
:1007D00081E00E94620041E060E081E00E94CA0086
:1007E0008FE39CE90197F1F700C000004FE060E063
:1007F00082E20E94D5014FE06CE082E20C94D501C8
:10080000CF93DF930F92CDB7DEB7882329F063E152
:10081000813019F08FEF09C062E1AE014F5F5F4F89
:1008200082E20E945302898181700F90DF91CF9103
:100830000895FF920F931F93CF93DF930F92CDB73D
:10084000DEB7F62E042F882329F013E1813019F04A
:100850008FEF19C012E1AE014F5F5F4F612F82E24F
:100860000E94530221E030E001C0220FFA94EAF71F
:100870008981002379F0822B89834981612F82E26B
:100880000E94D50181E00F90DF91CF911F910F91D0
:10089000FF90089520958223EFCF0E9453000E947D
:1008A00031010E94B2010E94E5038FE39CE90197A8
:1008B000F1F700C0000090E080E00E94D803813092
:1008C00071F480934E0180934D0141E065E080E03A
:1008D0000E94CA0041E064E080E00E94190460E0E8
:1008E00080E00E940004C82F40E064E080E091E0D6
:1008F0000E944F0161E08C2F0E94830180914D0185
:10090000C1112CC0882349F081E090914E019111D2
:1009100080E080934E0110924D0180914C019091A6
:100920004E01992309F1811112C061E090E080E04D
:100930000E94CA0381E080934C0141E065E080E0C1
:100940000E94CA0041E064E080E00E9419048FE345
:100950009CE90197F1F700C00000C1CF8111DDCF04
:1009600081E080934D01D9CF882389F360E090E046
:1009700080E00E94CA0310924C0140E065E080E0F4
:0C0980000E94CA0040E0DFCFF894FFCFD7
:10098C0042342D3E29002A002B0026002700280087
:10099C002300240025006400C500C400C200C1006F
:1009AC00C000C6000A0DBD00BC00BB00BA00B900F7
:1009BC00B800010500000104000030313233343539
:0C09CC00363738394142434445460000AC
:00000001FF
