:100000000C9434000C9451000C9451000C94510049
:100010000C9451000C9451000C9451000C9451001C
:100020000C9451000C9451000C9451000C9451000C
:100030000C9451000C9451000C9451000C945100FC
:100040000C9451000C9451000C9451000C945100EC
:100050000C9451000C9451000C9451000C945100DC
:100060000C9451000C94510011241FBECFEFD8E026
:10007000DEBFCDBF11E0A0E0B1E0ECEEF8E002C0E1
:1000800005900D92A234B107D9F721E0A2E4B1E0C6
:1000900001C01D92A534B207E1F70E9418040C9428
:1000A00074040C940000E0911A01F0911B0180810E
:1000B00080628083E0910E01F0910F0180818F7D3D
:1000C00080830895813009F1823041F1811134C07B
:1000D000E0911A01F0911B01A0911C01B0911D014A
:1000E000309751F1109741F181E090E001C0880F05
:1000F0006A95EAF74423D9F03081382B30832223E4
:10010000D9F09C91892B8C930895E0911401F09182
:100110001501A0911601B0911701E2CFE0910E01F7
:10012000F0910F01A0911001B0911101D9CF408140
:10013000382F30953423E2CF0895E0911C01F091DF
:100140001D01882321F08081806280830895808151
:100150008F7DFBCF813049F08230B9F0E0911C01F6
:10016000F0911D01882329F00895E0911601F09186
:1001700017013097C9F3808121E030E001C0220FE0
:100180006A95EAF782278083EFCFE0911001F09122
:100190001101EFCF813049F08230C9F0E0911C01AC
:1001A000F0911D01882329F00895E0911601F09146
:1001B00017013097C9F381E090E001C0880F6A957C
:1001C000EAF79081442341F0892B8083EDCFE091C1
:1001D0001001F0911101EDCF80958923F6CFCF93D7
:1001E000DF930F92CDB7DEB78130A1F08230C9F036
:1001F000E0911801F0911901882381F0898190E044
:1002000002C0959587956A95E2F781700F90DF910E
:10021000CF910895E0911201F091130180818983BB
:10022000EDCFE0910C01F0910D01F8CFEEE1F1E09E
:10023000A081B1818C911C92A281B3811C92A48176
:10024000B58187E68C93A085B18588E18C93068083
:10025000F781E02D8EE080830895CF93DF93CDB7B3
:10026000DEB7DF91CF910895FC01680F792F711DE2
:10027000E617F707E9F44423D1F0E0912801F09163
:100280002901808185FFFDCFE0912A01F0912B01AA
:100290008AE08083E0912801F0912901808185FF27
:1002A000FDCFE0912A01F0912B018DE0808308952C
:1002B000A0912801B09129018C9185FFFDCF8191FA
:1002C000A0912A01B0912B018C93D2CFFC01680F31
:1002D000792F711DE617F707E9F44423D1F0E09177
:1002E0002801F0912901808185FFFDCFE0912A014D
:1002F000F0912B018AE08083E0912801F09129019F
:10030000808185FFFDCFE0912A01F0912B018DE0E6
:1003100080830895A0912801B09129018C9185FFD7
:10032000FDCFA0912A01B0912B0181918C93D2CF66
:10033000CF93DF93CAE3D1E021E040E06981888177
:100340000E94620021E040E06D818C810E94620089
:10035000EEE2F1E0A281B38184E08C93A085B185C7
:100360008C918C7F8C930284F385E02D88E48083CC
:10037000DF91CF910895E0913001F091310194EA3D
:100380009083E0913001F0913101908197FFFDCF92
:10039000A0913601B09137019C91987F983021F05F
:1003A00084E9808381E00895E0913201F091330186
:1003B000880F8083E0913001F091310184E88083DF
:1003C000E0913001F0913101808187FFFDCFA09154
:1003D0003601B09137018C91887F883121F084E912
:1003E000808382E00895E0913201F09133016083CF
:1003F000E0913001F091310184E88083E091300197
:10040000F0913101808187FFFDCFA0913601B0913D
:1004100037018C91887F883221F084E9808383E0E2
:100420000895E0913201F09133014083E091300171
:10043000F091310184E88083E0913001F091310145
:10044000808187FFFDCFA0913601B09137018C915B
:10045000887F883221F084E9808384E0089584E9EC
:1004600080838FE99FE00197F1F700C0000080E0F2
:100470000895CF93DF93FA01A0913001B09131013B
:1004800094EA9C93A0913001B09131019C9197FF27
:10049000FDCFC0913601D09137019881987F983077
:1004A00031F084E98C9381E0DF91CF910895A091A0
:1004B0003201B0913301982F990F9C93A091300194
:1004C000B091310194E89C93A0913001B091310139
:1004D0009C9197FFFDCFC0913601D0913701988153
:1004E000987F983121F084E98C9382E0DDCFA09150
:1004F0003201B09133016C93A0913001B091310180
:1005000094E89C93A0913001B09131019C9197FFA8
:10051000FDCFC0913601D09137019881987F9832F4
:1005200021F084E98C9383E0BFCF94EA9C93A0915F
:100530003001B09131019C9197FFFDCFC091360100
:10054000D09137019881987F903121F084E98C9384
:1005500084E0AACFA0913201B0913301880F81606D
:100560008C93A0913001B091310184E88C93A091DB
:100570003001B09131018C9187FFFDCFC0913601E0
:10058000D09137018881887F803421F084E98C9371
:1005900085E08ACF84E88C93A0913001B09131013D
:1005A0008C9187FFFDCFC0913601D09137018881B2
:1005B000887F883521F084E98C9386E075CFA091FF
:1005C0003201B09133018C918083E0913001F09140
:1005D000310184E980838FE99FE00197F1F700C042
:1005E000000080E061CFCF93DF93FB01A091300149
:1005F000B091310194EA9C93A0913001B091310106
:100600009C9197FFFDCFA0913601B09137019C914D
:10061000987F983009F043C0A0913201B091330126
:10062000880F81608C93A0913001B091310184E8F2
:100630008C93A0913001B09131018C9187FFFDCF57
:10064000C0913601D09137018881887F883149F582
:1006500084E88C93A0913001B09131018C9187FF97
:10066000FDCFA0913601B09137018C91887F8832FF
:10067000D1F4A0913201B09133018C918083E0914B
:100680003001F091310184E980838FE99FE0019787
:10069000F1F700C0000080E0DF91CF91089581E084
:1006A000FBCF82E0F9CF83E0F7CFE0913001F0910A
:1006B000310194EA9083E0913001F0913101908111
:1006C00097FFFDCFE0913601F09137019081987F3F
:1006D000983009F03FC0E0913201F0913301880F6A
:1006E0008083E0913001F091310184E88083E091D2
:1006F0003001F0913101808187FFFDCFE09136011B
:10070000F09137018081887F883131F5E0913201A5
:10071000F09133016083E0913001F091310184E880
:100720008083E0913001F0913101808187FFFDCF1E
:10073000A0913601B09137018C91887F883271F495
:1007400084E980838FE99FE00197F1F700C0000002
:1007500080E0089581E0089582E0089583E008959F
:1007600020E041E060E081E00E94620041E060E062
:1007700081E00E94CA008FE39CE90197F1F700C075
:1007800000004FE060E082E20E94BB014FE06CE0BD
:1007900082E20C94BB01CF93DF930F92CDB7DEB70B
:1007A000882329F063E1813019F08FEF09C062E1FD
:1007B000AE014F5F5F4F82E20E94390289818170F2
:1007C0000F90DF91CF910895FF920F931F93CF93D6
:1007D000DF930F92CDB7DEB7F62E042F882329F0D2
:1007E00013E1813019F08FEF19C012E1AE014F5FB4
:1007F0005F4F612F82E20E94390221E030E001C0A8
:10080000220FFA94EAF78981002379F0822B8983F9
:100810004981612F82E20E94BB0181E00F90DF914C
:10082000CF911F910F91FF90089520958223EFCFD4
:100830000F92CDB7DEB70E9453000E9416010E94AE
:1008400098010E94B0038FE39CE90197F1F700C083
:10085000000060E080E00E94CB03182F80E3810F4E
:10086000898340E064E088E091E00E94340141E047
:1008700061E0CE0101960E94660180914401111150
:1008800021C0882349F081E090914301911180E0DB
:100890008093430110924401809142019091430161
:1008A0009923B1F08111CFCF81E08093420141E0E3
:1008B00065E080E00E94CA0041E064E080E00E94C0
:1008C000E403C1CF8111E8CF81E080934401E4CFFC
:1008D000882309F4B8CF1092420140E065E080E03F
:0C08E0000E94CA0040E0E9CFF894FFCF6E
:1008EC002052616461722D3E42352D3E29002A0052
:1008FC002B0026002700280023002400250064007C
:10090C00C500C400C200C100C000C6000A0DBD0075
:10091C00BC00BB00BA00B900B8000105000001041E
:02092C000000C9
:00000001FF
