:100000000C9434000C9449000C9449000C94490061
:100010000C9449000C9449000C9449000C9449003C
:100020000C9449000C9449000C9449000C9449002C
:100030000C9449000C9449000C9449000C9449001C
:100040000C9449000C9449000C9449000C9449000C
:100050000C9449000C9449000C9449000C944900FC
:100060000C9449000C94490011241FBECFEFD8E036
:10007000DEBFCDBF11E0A0E0B1E0E8EDF0E002C0EE
:1000800005900D92A430B107D9F70E945C000C9442
:100090006A000C940000E0910001F0910101808160
:1000A000806280830895E0910201F09103018081D4
:1000B00090E28927808308950E944B000E9453009C
:1000C0002FEF89E698E1215080409040E1F700C091
:0800D0000000F4CFF894FFCF0B
:0400D80024002500DB
:00000001FF
