:100000000C9434000C9449000C9449000C94490061
:100010000C9449000C9449000C9449000C9449003C
:100020000C9449000C9449000C9449000C9449002C
:100030000C9449000C9449000C9449000C9449001C
:100040000C9449000C9449000C9449000C9449000C
:100050000C9449000C9449000C9449000C944900FC
:100060000C9449000C94490011241FBECFEFD8E036
:10007000DEBFCDBF11E0A0E0B1E0EAE2F9E002C0EE
:1000800005900D92A435B107D9F70E9469040C942C
:1000900093040C940000E0911201F091130180810F
:1000A00080628083E0910601F091070180818F7D5D
:1000B00080830895813009F1823041F1811134C08B
:1000C000E0911201F0911301A0911401B09115017A
:1000D000309751F1109741F181E090E001C0880F15
:1000E0006A95EAF74423D9F03081382B30832223F4
:1000F000D9F09C91892B8C930895E0910C01F0919B
:100100000D01A0910E01B0910F01E2CFE091060127
:10011000F0910701A0910801B0910901D9CF408168
:10012000382F30953423E2CF0895E0911401F091F7
:100130001501882321F08081806280830895808169
:100140008F7DFBCF813049F08230B9F0E09114010E
:10015000F0911501882329F00895E0910E01F091A6
:100160000F013097C9F3808121E030E001C0220FF8
:100170006A95EAF782278083EFCFE0910801F0913A
:100180000901EFCF813049F08230C9F0E0911401CC
:10019000F0911501882329F00895E0910E01F09166
:1001A0000F013097C9F381E090E001C0880F6A9594
:1001B000EAF79081442341F0892B8083EDCFE091D1
:1001C0000801F0910901EDCF80958923F6CFCF93F7
:1001D000DF930F92CDB7DEB78130A1F08230C9F046
:1001E000E0911001F0911101882381F0898190E064
:1001F00002C0959587956A95E2F781700F90DF911F
:10020000CF910895E0910A01F0910B0180818983DB
:10021000EDCFE0910401F0910501F8CFE0912001CC
:10022000F0912101808185FFFDCFE0912201F091C5
:1002300023018AE08083E0912001F09121018081F7
:1002400085FFFDCFE0912201F09123018DE08083B5
:100250000895E6E1F1E0A081B1818C911C92A28128
:10026000B3811C92A481B58187E68C93A085B1856A
:1002700088E18C930680F781E02D8EE080830895DD
:10028000CF93DF93CDB7DEB7DF91CF910895FC0117
:10029000680F792F711DE617F70721F4442381F0C9
:1002A0000C940E01A0912001B09121018C9185FF49
:1002B000FDCF8191A0912201B09123018C93EBCFCE
:1002C0000895FC01680F792F711DE617F70721F4D7
:1002D000442381F00C940E01A0912001B0912101E2
:1002E0008C9185FFFDCFA0912201B09123018191D6
:1002F0008C93EBCF08951F93CF93DF9300D000D062
:10030000CDB7DEB7E82F162F80E398E79C838B8369
:10031000AE2FA295AF70B0E0AE5BBE4F8C918983DB
:10032000EF70F0E0EE5BFE4F80818A8340E062E098
:10033000CE0103960E944701412F62E0CE01019653
:100340000E9461010F900F900F900F90DF91CF915D
:100350001F910895CF93DF93C2E3D1E021E040E005
:10036000698188810E945A0021E040E06D818C8182
:100370000E945A00E6E2F1E0A281B38184E08C930E
:10038000A085B1858C918C7F8C930284F385E02DC0
:1003900088E48083DF91CF910895E0912801F09166
:1003A000290194EA9083E0912801F091290190813C
:1003B00097FFFDCFA0912E01B0912F019C91987FC6
:1003C000983021F084E9808381E00895E0912A014A
:1003D000F0912B01880F8083E0912801F091290191
:1003E00084E88083E0912801F0912901808187FFD2
:1003F000FDCFA0912E01B0912F018C91887F883183
:1004000021F084E9808382E00895E0912A01F0914F
:100410002B016083E0912801F091290184E8808319
:10042000E0912801F0912901808187FFFDCFA09103
:100430002E01B0912F018C91887F883221F084E9C0
:10044000808383E00895E0912A01F0912B0140839D
:10045000E0912801F091290184E88083E09128014E
:10046000F0912901808187FFFDCFA0912E01B091ED
:100470002F018C91887F883221F084E9808384E089
:10048000089584E980838FE99FE00197F1F700C028
:10049000000080E00895CF93DF93FA01A091280136
:1004A000B091290194EA9C93A0912801B09129016F
:1004B0009C9197FFFDCFC0912E01D0912F01988183
:1004C000987F983031F084E98C9381E0DF91CF916F
:1004D0000895A0912A01B0912B01982F990F9C9318
:1004E000A0912801B091290194E89C93A091280142
:1004F000B09129019C9197FFFDCFC0912E01D09121
:100500002F019881987F983121F084E98C9382E0C3
:10051000DDCFA0912A01B0912B016C93A09128010D
:10052000B091290194E89C93A0912801B0912901F0
:100530009C9197FFFDCFC0912E01D0912F01988102
:10054000987F983221F084E98C9383E0BFCF94EABE
:100550009C93A0912801B09129019C9197FFFDCF18
:10056000C0912E01D0912F019881987F903121F078
:1005700084E98C9384E0AACFA0912A01B0912B0149
:10058000880F81608C93A0912801B091290184E8A3
:100590008C93A0912801B09129018C9187FFFDCF08
:1005A000C0912E01D0912F018881887F803421F065
:1005B00084E98C9385E08ACF84E88C93A09128010C
:1005C000B09129018C9187FFFDCFC0912E01D09170
:1005D0002F018881887F883521F084E98C9386E01B
:1005E00075CFA0912A01B0912B018C918083E0916D
:1005F0002801F091290184E980838FE99FE0019728
:10060000F1F700C0000080E061CFCF93DF93FB01E2
:10061000A0912801B091290194EA9C93A09128010E
:10062000B09129019C9197FFFDCFA0912E01B0912F
:100630002F019C91987F983009F043C0A0912A0126
:10064000B0912B01880F81608C93A0912801B0910B
:10065000290184E88C93A0912801B09129018C9103
:1006600087FFFDCFC0912E01D0912F018881887F17
:10067000883149F584E88C93A0912801B091290133
:100680008C9187FFFDCFA0912E01B0912F018C910D
:10069000887F8832D1F4A0912A01B0912B018C91EE
:1006A0008083E0912801F091290184E980838FE91A
:1006B0009FE00197F1F700C0000080E0DF91CF914B
:1006C000089581E0FBCF82E0F9CF83E0F7CFE0919E
:1006D0002801F091290194EA9083E0912801F0919A
:1006E0002901908197FFFDCFE0912E01F0912F011C
:1006F0009081987F983009F03FC0E0912A01F091F5
:100700002B01880F8083E0912801F091290184E872
:100710008083E0912801F0912901808187FFFDCF3E
:10072000E0912E01F0912F018081887F883131F591
:10073000E0912A01F0912B016083E0912801F09172
:10074000290184E88083E0912801F09129018081CA
:1007500087FFFDCFA0912E01B0912F018C91887F52
:10076000883271F484E980838FE99FE00197F1F783
:1007700000C0000080E0089581E0089582E00895BF
:1007800083E00895E0913A01F0913B01208121FD41
:10079000FDCF81BD92BD60BDFA9AF99A8FE99FE0C5
:1007A0000197F1F700C000000895E0913A01F0913F
:1007B0003B01208121FDFDCFE0914001F0914101FD
:1007C0009083E0913E01F0913F018083E0913A01F6
:1007D000F0913B018081816080838FE99FE00197E8
:1007E000F1F700C00000E0913C01F0913D018081F3
:1007F0000895F999FECF81BD92BD60BDFA9AF99A2C
:10080000089520E041E060E081E00E945A0041E06C
:1008100060E081E00E94C2008FE39CE90197F1F75C
:1008200000C000004FE060E082E20E94CD014FE096
:100830006CE082E20C94CD01CF93DF930F92CDB7A1
:10084000DEB7882329F063E1813019F08FEF09C00A
:1008500062E1AE014F5F5F4F82E20E944B028981ED
:1008600081700F90DF91CF910895FF920F931F93A6
:10087000CF93DF930F92CDB7DEB7F62E042F8823E8
:1008800029F013E1813019F08FEF19C012E1AE01A8
:100890004F5F5F4F612F82E20E944B0221E030E008
:1008A00001C0220FFA94EAF78981002379F0822BA4
:1008B00089834981612F82E20E94CD0181E00F90FE
:1008C000DF91CF911F910F91FF9008952095822382
:1008D000EFCF0E944B000E9429010E94AA010E94B2
:1008E00001048FE39CE90197F1F700C0000090E05C
:1008F00080E00E94D503C82F40E064E080E091E0F2
:100900000E94470161E08C2F0E947B0163E390E02D
:1009100080E00E94C20390E080E00E94D50361E085
:0A0920000E947B01FFCFF894FFCF87
:10092A0042342D3E29002A002B00260027002800E9
:10093A002300240025006400C500C400C200C100D1
:10094A00C000C6000A0DBD00BC00BB00BA00B90059
:10095A00B80001050000010400003F00400041000A
:10096A004200303132333435363738394142434424
:04097A0045460000EE
:00000001FF
