:100000000C9434000C9449000C9449000C94490061
:100010000C9449000C9449000C9449000C9449003C
:100020000C9449000C9449000C9449000C9449002C
:100030000C9449000C9449000C9449000C9449001C
:100040000C9449000C9449000C9449000C9449000C
:100050000C9449000C9449000C9449000C944900FC
:100060000C9449000C94490011241FBECFEFD8E036
:10007000DEBFCDBF11E0A0E0B1E0ECE5F1E002C0F1
:1000800005900D92A232B107D9F70E9492000C940C
:10009000AC000C940000E0910F01F0911001808100
:1000A000806280830895E0911101F09112018081B6
:1000B00090E2892780830895E3E1F1E0A081B18196
:1000C0008C911C92A281B3811C92A481B58187E698
:1000D0008C93A085B18588E18C930680F781E02D13
:1000E0008EE080830895FC01680F792F711DA09127
:1000F0001D01B0911E01E617F70751F48C9185FFA1
:10010000FDCFE0911F01F09120018AE080830895E6
:100110008C9185FFFDCF8191A0911F01B0912001AD
:100120008C93E5CF0E944B000E945C000E9453001C
:100130006DE080E091E00E9473006DE080E091E06E
:100140000E9473002FEF89E698E121508040904093
:0C015000E1F700C00000EACFF894FFCFF8
:10015C0048656C6C6F20776F726C640A0D230024F9
:10016C000025006400C500C400C200C100C000C668
:02017C00000081
:00000001FF
